:020000040800F2
:10000000B097002055020008330900089107000846
:1000100031090008010500089D13000800000000D8
:100020000000000000000000000000009D0100082A
:100030006D05000800000000F1010008291100080A
:100040006F0200086F0200086F0200086F020008CC
:100050006F0200086F0200086F0200086F020008BC
:100060006F0200086F0200086F0200086F020008AC
:100070006F0200086F0200086F0200086F0200089C
:100080006F0200086F0200086F0200086F0200088C
:100090006F0200086F0200086F0200086F0200087C
:1000A0006F0200086F0200086F0200086F0200086C
:1000B0006F020008991100086F0200086F02000823
:1000C0006F0200086F0200086F0200086F0200084C
:1000D0006F0200086F0200086F0200086F0200083C
:1000E0006F0200086F0200086F0200086F0200082C
:1000F0006F0200086F0200086F0200086F0200081C
:100100006F0200086F0200086F0200086F0200080B
:100110006F0200086F0200086F0200086F020008FB
:100120006F0200086F0200086F0200086F020008EB
:100130006F0200086F0200086F0200086F020008DB
:100140006F0200086F0200086F0200086F020008CB
:100150006F0200086F0200086F0200086F020008BB
:100160006F0200086F0200086F0200086F020008AB
:100170006F0200086F0200086F0200086F0200089B
:100180006F0200086F020008DFF80CD000F08AF858
:100190000048004729160008B09700202A4B19682C
:1001A0000868B0E8F04F80F30988BFF36F8F4FF015
:1001B000000080F3118870470000000006480068C6
:1001C000006880F3088862B661B6BFF34F8FBFF353
:1001D0006F8F00DF00BF00BF08ED00E0DFF80C000C
:1001E000016841F470010160704700BF88ED00E0D4
:1001F000EFF30980BFF36F8F134B1A681EF0100FD7
:1002000008BF20ED108A20E9F04F106008B44FF0CD
:10021000500080F31188BFF34F8FBFF36F8F01F051
:100220004FFF4FF0000080F3118808BC1968086880
:10023000B0E8F04F1EF0100F08BFB0EC108A80F34A
:100240000988BFF36F8F704764000020EFF30580CB
:10025000704700000648804706480047FEE7FEE773
:10026000FEE7FEE7FEE7FEE7FEE7FEE7FEE7FEE766
:100270003D1100088901000830B50B4601460020F9
:100280002022012409E021FA02F59D4205D303FA58
:1002900002F5491B04FA02F52844151EA2F10102D9
:1002A000F1DC30BD064C074D06E0E06840F001038C
:1002B00094E8070098471034AC42F6D3FFF768FF84
:1002C0001C2500083C2500080029816802D041F067
:1002D000010101E021F0010181607047084B10B578
:1002E000D3F8042307490A40D0E900142143D0E998
:1002F0000240044321431143C3F8041310BD00001E
:1003000000200140E030FCFF0029816802D041F468
:10031000807101E021F4807181607047002981685B
:1003200002D041F4007101E021F400718160704756
:1003300030B542680F4B0C791A400B6842EA042230
:100340001343436082680C4B4D791A40D1E9034353
:1003500023438C6844EA4504234313438360C26A01
:10036000097D22F47002491EC9B242EA0151C162FC
:1003700030BD0000FFFEFFFCFDF7FFC070B5072693
:1003800009290AD9C568A1F10A0404EB4404A6406E
:10039000B543A3401D43C56007E0056901EB410477
:1003A000A640B543A3401D4305611F23072A09D278
:1003B000446B521E02EB820293409C4391400C43DB
:1003C000446370BD0D2A09D2046BD21F02EB820276
:1003D00093409C4391400C43046370BDC46A0D3A42
:1003E00002EB820293409C4391400C43C46270BD77
:1003F000816841F080418160704700210160017196
:1004000041718160C1600161012101757047000087
:10041000104910B54B8840F24C400022834214D260
:100420008B88834211D2CB8840F26C74A3420CD9E2
:100430000B89834209D2C868401CC860822805D94C
:10044000087820B1012801D10A70CA6010BD0120CE
:100450000870FAE7440000207FB50121402000F039
:1004600099FC01248DF8044000254FF400608DF8BC
:100470000650032600908DF805608DF80740694608
:10048000164800F0D7F80121022000F08FFC41F25D
:1004900088300190FE20ADF80000ADF80250ADF8B4
:1004A00008500F4D6946284600F0B6FE012211465D
:1004B000284600F0A8FE0121284600F08EFE1D20EF
:1004C0008DF80C0004208DF80D008DF80E608DF86D
:1004D0000F4003A800F08EFB7FBD00000014024017
:1004E000000400400549097881424FF0000004D122
:1004F000401CC0B21E28FBD30120704734000020EE
:10050000FEE70029016802D041F0010101E021F07D
:10051000010101607047000030B50368124ACC68E1
:1005200013400A682243D1E905452C432243CC6994
:1005300022430C6A22434C6A22438C6A22434C6B4E
:1005400022438C6B22431A430260426922F0070364
:10055000D1E90B2422431A4342610A6942604A6886
:1005600082608968C16030BD3F801CF07047000028
:10057000F0B587B00121082000F00CFC01218804AF
:1005800000F014FC012500248DF806408DF807507A
:1005900002262802254F8DF8056000908DF8046032
:1005A0006946384600F046F8680200908DF804600D
:1005B0006946384600F03EF807220921384600F027
:1005C00075F807220821384600F070F84FF4E13042
:1005D000ADF80C400290ADF80E40ADF81040ADF80B
:1005E00014400C20124CADF8120002A9204600F075
:1005F0007BFE4FF4407000F02FFB27208DF8180091
:100600008DF819508DF81A508DF81B5006A800F07F
:10061000F1FA012240F22551204600F04CFE012162
:10062000204600F037FE07B0F0BD0000000C02408D
:1006300000480040F0B5002201274FF0030C0B6882
:1006400007FA02F52B40AB422CD1066853000CFA96
:1006500003F4A64306600E79D0F800E09E4046EA17
:100660000E0606600E79012E01D0022E12D1866888
:10067000A64386604E79D0F808E09E4046EA0E0612
:1006800086604668AE43466045688E799640B6B24D
:1006900035434560C568A543C560CC799C40C368B7
:1006A0001C43C460521C102AC9D3F0BD4B07DB0E9B
:1006B0009A40C90810B500EB8100016A0F249C40E4
:1006C000A1430162016A1143016210BD024600208C
:1006D00012690A4200D001207047418370470183AC
:1006E0007047000001480078704700004400002077
:1006F0007CB501211C2000F04DFB0C200090012056
:100700008DF8040000248DF806408DF80540094D51
:100710008DF8070069462846FFF78CFF10218DF8F9
:100720000440022000918DF8070069462846FFF733
:1007300081FF7CBD001002402DE9F041124E0024E3
:10074000042130463183718331831021FFF7BEFFCE
:10075000012800D1012400250827304677833783FC
:1007600061060C0E1021FFF7B1FF012801D144F002
:10077000010477836D1CEDB2072DEED3034804709E
:100780002046BDE8F0810000001002403400002047
:10079000FEE700007CB50121202000F0FBFA60207C
:1007A00003240E4E00908DF8044000258DF807506C
:1007B00069463046FFF73EFF0121202000F0EAFAAB
:1007C000200200908DF804408DF8075069463046AD
:1007D000FFF730FFBDE87C4000F002B80014024093
:1007E0002DE9F04101219AB0880500F0D3FA37488D
:1007F00001903748042602A9002481E851003702FD
:100800007002CDE9067080000890401109900AA995
:1008100005944002012581E831004002DFF8B480F0
:1008200000900D9469460E944046FFF775FE012135
:100830004046FFF766FE0121384600F0C3FA28045F
:10084000CDE915404FF47060CDE9174015A8FFF7CA
:1008500045FD0FA8FFF7D1FD0F9411941294139446
:100860001A4C8DF840504C3C8DF841508DF850603A
:100870000FA92046FFF75CFD002301220621204638
:10088000FFF77CFD0023022207212046FFF776FDBB
:10089000002303220F212046FFF770FD04220023CE
:1008A00011462046FFF76AFD01212046FFF736FD7D
:1008B00001212046FFF728FD01212046FFF704FD16
:1008C0002046FFF795FD1AB0BDE8F0814C220140AB
:1008D00036000020106402402DE9FC410121202057
:1008E00000F058FA01208DF8040000218DF8061060
:1008F0008DF807000D4F04248DF80510009469460B
:100900003846FFF797FE0825694638460095FFF7F9
:1009100091FE1026694638460096FFF78BFE034885
:100920001830048005800680BDE8FC810014024078
:10093000FEE770471CB510A0D0E90010CDE900100B
:10094000102000F033FB05226946302000F018F932
:1009500005226946102000F045F8002069460A5C2F
:10096000A52A03D1401CC0B20528F8D3052801D020
:1009700001201CBD00201CBDA5A5A5A5A50000004B
:100980007CB50121032000F005FA012403208DF835
:10099000044000258DF806508DF805000F4E00909C
:1009A0008DF8074069463046FFF744FE102000905E
:1009B0008DF804508DF8074069460948FFF73AFE64
:1009C00000F078FA00F046F802213046FFF785FE85
:1009D00001213046FFF783FE7CBD00000004024089
:1009E000000002402DE9F041DFF838800E46044651
:1009F000154601214046FFF770FE204600F0BCFA84
:100A00000746002405E0FF2000F0B6FA3055641CCC
:100A1000E4B2AC42F7D301214046FFF760FE38460E
:100A2000BDE8F0810004024070B5094C0546012183
:100A30002046FFF752FE284600F09EFAFF2000F005
:100A40009BFA054601212046FFF749FE284670BD66
:100A50000004024010B5144C86B00021204600F07E
:100A6000B3FA0021ADF800104FF48270ADF8020027
:100A7000ADF808106015ADF80A001820ADF80C00AC
:100A8000ADF804100720ADF80610ADF80E10ADF863
:100A900010006946204600F0ACFA0121204600F023
:100AA00093FA06B010BD00000030014010B5184C9C
:100AB00002212046FFF711FE05221649302000F0E2
:100AC0005FF814490522491D2A2000F059F8012138
:100AD000212000F077F80121222000F073F8152181
:100AE000242000F06FF82821252000F06BF80F215A
:100AF000262000F067F80E21202000F063F8022184
:100B00002046FFF7ECFDBDE810400A2000F060BD74
:100B100000040240C424000870B50546102000F00F
:100B200045FA154C02212046FFF7D7FD2022294621
:100B3000A02000F025F802212046FFF7D0FD0F4C41
:100B400010212046FFF7C2FD0028F9D10720FFF74A
:100B50006BFF04460146272000F034F8E00605D577
:100B6000FF21E12000F02EF8102070BDA00601D575
:100B7000202070BDFF2070BD000402400000024034
:100B80002DE9F041DFF838800D4604461646012174
:100B90004046FFF7A2FD204600F0EEF9074600248C
:100BA00005E015F8010B00F0E7F9641CE4B2B4426B
:100BB000F7D301214046FFF792FD3846BDE8F081AA
:100BC0000004024070B50A4C0E460546012120463D
:100BD000FFF783FD284600F0CFF90546304600F0C8
:100BE000CBF901212046FFF77AFD284670BD0000B1
:100BF0000004024030B50F23C27801780125FAB114
:100C0000144A126801F1E02102F4E062C2F5E062E8
:100C1000C2F30722C2F10404D3404278A240847890
:100C20001C401443220181F80024007800F01F01C9
:100C30008D404009800000F1E020C0F8005130BD37
:100C400001F01F0085404809800000F1E020C0F855
:100C5000805130BD0CED00E00249084302490860B4
:100C6000704700000000FA050CED00E030B53D488B
:100C70006FF020014180292181806FF01D010180EA
:100C80001421C18038490888DFED380A00EE100AC7
:100C900034484A88B8EE400A183830EE600ADFED72
:100CA000340AC0EE201A9FED340ADFED320AB0EEAE
:100CB000401A01EEA01ABCEEC11A11EE103A01EE74
:100CC000102ADFED2E1A9FED2E2AB8EE411A8A88DF
:100CD00031EEC11AC1EE021AB0EE401A01EEA01AAE
:100CE000BCEEC11A11EE104A01EE102ADFED251AF2
:100CF0009FED252AB8EE411AC98831EE611AC1EE7E
:100D0000021AB0EE401A01EEA01ABCEEC11A11EEA2
:100D1000102A01EE101ADFED1D1A9FED1D2AB8EE04
:100D2000411A213B0381293471EEC11AC4801E3A55
:100D3000428081EE821A1D0A01EE200ABCEEC00A32
:100D400010EE101A14318180103005704370230AA0
:100D50008370C470130A037142710A0A8271C171EF
:100D600030BD00005C000020360000200000E143A0
:100D700000204645000061440040834400E05D459A
:100D800000A043450000FA4300B03D4500005C452B
:100D900000604245044A0029116801D0014300E087
:100DA000814311607047000030380240044A002936
:100DB000116801D0014300E08143116070470000D9
:100DC00040380240044A0029116801D0014300E084
:100DD000814311607047000044380240044A0029F2
:100DE000116801D0014300E08143116070470000A9
:100DF0002438024070B5204B1968204C11F00C01CA
:100E000004D06610042903D0082903D004601BE035
:100E1000066019E0184A121F1168C1F38055116865
:100E200001F03F0115B1B6FBF1F101E0B4FBF1F1C6
:100E300014681268C4F388146143C2F30142521C5F
:100E40005200B1FBF2F1016019680F2202EA1111A0
:100E50000B4A545C0168E14041601C68072505EAC3
:100E60009424145D21FA04F484601B6805EA53336A
:100E7000D25CD140C16070BD083802400024F4004B
:100E8000140000201CB506490D20CDE90001002307
:100E90004FF4007203A1064801F0F0F91CBD0000F8
:100EA00024000020726561647461736B00000000AF
:100EB000711D00082DE9F041012188B00846FFF7B7
:100EC00069FF4FF4805801214046FFF77BFFE02087
:100ED000022605908DF8186000248DF81A40032032
:100EE0008DF81900224F01258DF81B5005A93846B1
:100EF000FFF7A0FB052211463846FFF7D7FB052276
:100F000006213846FFF7D2FB052207213846FFF7B6
:100F1000CDFB01214046FFF761FF00214046FFF76E
:100F20005DFFADF800404FF48270ADF80200ADF8FF
:100F300008506802ADF80A003820ADF80C00ADF892
:100F40000440ADF80E4007200A4CADF81000ADF893
:100F500006606946204600F04CF80121204600F06A
:100F600033F8FF2000F008F808B0BDE8F081000079
:100F7000000002400030014070B50B4C05460221D4
:100F8000204600F02BF80028F9D02946204600F032
:100F90002EF80121204600F021F80028F9D0204643
:100FA00000F023F8C0B270BD003001400146054892
:100FB000028822F03802028002880A43028001215E
:100FC00000F002B8003001400029018802D041F051
:100FD000400101E021F040010180704702460020FD
:100FE00012890A4200D001207047808970478181B0
:100FF000704730B502884C8802F441530A88CD8886
:1010000022438C882C4322430C8922434C8922435F
:101010008C892243CC8922431A430280828B22F49A
:1010200000628283098A018230BD00001CB5064936
:101030000C20CDE9000100234FF4007203A1064803
:1010400001F01CF91CBD00002800002073656E64CF
:101050007461736B00000000CD1D00080CB5002208
:10106000274900920192086840F4803008604FF4EC
:10107000A043086800F4003001900098401C0090E4
:10108000019810B900989842F3D10868800334D5CC
:10109000012001901A484030026842F080520260FC
:1010A0001848026842F4404202601548083002685D
:1010B0000260026842F400420260026842F4A052F8
:1010C0000260031F104A1A600A6842F080720A60C8
:1010D0000A689201FCD50D4940F205720A60016868
:1010E00021F003010160016841F002010160016823
:1010F000C1F381010229FAD10CBD01920CBD00009F
:10110000003802400070004019544007003C024083
:101110004FF0E0210428086903D020F004000861A2
:10112000704740F00400FAE710B501F0D3F8012849
:1011300003D0BDE8104001F08BB810BD124810B5C7
:10114000016841F4700101601048016841F001013B
:1011500001600E4A00210832116002680C4B1A40EF
:101160000260031D0B4A1A60026822F480220260AA
:1011700006480C300160FFF771FF03494FF0006033
:101180008039086010BD000088ED00E000380240A2
:10119000FFFFF6FE1030002410B50B4C0121204655
:1011A00000F025F801280DD10121204600F012F8A9
:1011B000064805492C31006808600548016881F43B
:1011C0000061016010BD00000004004030000020FC
:1011D00014180240C943018270470029018802D0D7
:1011E00041F0010101E021F0010101807047024658
:1011F0000020138A92890B4202EA010202D0002ADF
:1012000000D001207047002A828901D00A4300E003
:101210008A4382817047000030B50288164C174D12
:10122000A0420DD0A8420BD0B0F1804F08D0144B93
:10123000984205D0134B984202D0134B984203D1E9
:1012400022F070034A881A43104B984206D0104B84
:10125000984203D022F440730A891A4302804A68F4
:10126000C2620A880285A04201D0A84201D1897ACF
:1012700001860121818230BD00000140000401404F
:101280000004004000080040000C00400010004036
:10129000001400400029818902D041F4005101E08E
:1012A00021F40051818170470246002012880A42D1
:1012B00000D00120704710B5C1F3421301F01F04A4
:1012C0000121A140012B07D0022B07D01430002AA6
:1012D000026805D00A4304E00C30F8E71030F6E766
:1012E0008A43026010BD00007FB50446008A0D46A7
:1012F000C98820F4405001432182A08941F20C6149
:101300008843A9882A8911436A8902431143A1812C
:10131000A08A20F44071A8890843A0826846FFF79C
:1013200069FD1A48844202D01948844201D10398C9
:1013300000E00298A189090400EBC00101EB001054
:10134000296801D5490000E08900B0FBF1F0642272
:10135000B0FBF2F109010B096FF018056B4300EBCC
:101360008300A3891D044FF0320306D503EBC000B0
:10137000B0FBF2F000F0070005E003EB0010B0FB5B
:10138000F2F000F00F00084320817FBD0010014003
:1013900000140140C1F3080181807047FEE700009E
:1013A0000FB4054B10B503A9044A029800F018F8D1
:1013B00010BC5DF814FB000005160008C4000020F6
:1013C00002E008C8121F08C1002AFAD1704770470E
:1013D000002001E001C1121F002AFBD1704700006C
:1013E0002DE9FF4F8BB09A460F460546002606E0D2
:1013F00025280BD052460D9990476D1C761C2878F5
:101400000028F5D10FB03046BDE8F08F0024A0468B
:101410000122604900E0044315F8013F203B02FA35
:1014200003F00842F7D128782E2817D115F8010FBC
:1014300044F004042A280ED06FF02F022878A0F17F
:10144000300109290AD808EB880102EB410100EBC1
:1014500001086D1CF2E757F8048B6D1C2878692889
:101460003ED006DC0028CDD063280BD0642804D100
:1014700036E0732810D075284BD052460D9990470E
:10148000761C85E017F8040B8DF8000000208DF81D
:101490000100E946012003E057F8049B4FF0FF30BC
:1014A00061074FF0000401D40AE0641C44450DDAE2
:1014B0008442FADB19F804100029F6D106E0641C16
:1014C0008442FCDB19F804100029F8D1264404E01A
:1014D00019F8010B52460D999047641EF8D257E057
:1014E00001CF4FF00A0B002802DA40422D2102E022
:1014F000210504D52B218DF82410012103E0E107FB
:1015000005D02021F7E70DF1200908910CE000211A
:10151000F9E701CF4FF00A0BF9E75946FEF7ACFEA9
:1015200001F1300209F8012D0028F6D1ADEB0900D8
:1015300000F1200B600701D44FF00108D84502DD0F
:10154000A8EB0B0000E000208046002406E009A87C
:101550005246005D0D999047641C761C08988442A1
:10156000F5DB04E0302052460D999047761CB8F127
:101570000001A8F10108F5DC05E019F8010B52465D
:101580000D999047761CBBF10001ABF1010BF4DC27
:101590006D1C34E70928010010B504460420FFF74C
:1015A000B7FD0A484FF47A71047014FB01F101226F
:1015B00042804FF0E020026942F002020261416184
:1015C000016941F00101016110BD00003E000020F1
:1015D00070B54FF0E02500216C69094AAB691278BB
:1015E0005043AA699A42FCD002D2A3EB020302E064
:1015F000A4EB02063344194413468142F1D370BD73
:101600003E00002070B5074D0446C1B22846FFF7E2
:10161000C1FE80212846FFF747FE0028F9D020466A
:1016200070BD0000004800401CB50A490020CDE90B
:1016300000010346802208A10A4800F01FFE01288D
:1016400002D04FF0FF301CBD00F0EAFC06A0FFF70F
:10165000A7FEFEE72C00002073746172745461735E
:101660006B000000911E00080D0A20202020CFB53D
:10167000CDB3B3F5CABCBBAFCDEAB3C9202020209F
:101680000D0A00002DE9F041184E0F460446F5689A
:101690003068001D00F062FA38B9306890F82C10FC
:1016A00001208840316981433161601C07D137B125
:1016B0003168BDE8F0410E48091D00F087BA306876
:1016C0002C44AC424460316805D2B06BBDE8F041B7
:1016D000091D00F063BA706B091D00F05FFAB06A73
:1016E000844200D2B462BDE8F081000064000020B2
:1016F000980300202DE9F041054600F073FA2D4EC5
:10170000B068401CB06030682B4F10B1706930B3C6
:101710002BE03560B068012827D1002404EB840059
:1017200007EB800000F02CFA641C202CF6D3234831
:1017300000F026FA2148143000F022FA1F48283021
:1017400000F01EFA1D483C3000F01AFA1B485030D9
:1017500000F016FA194870631430B06305E0306881
:10176000E96AC06A884200D83560706A0121401C6D
:101770007062E86A326981401143316100EB800098
:1017800007EB8000291D00F021FA00F065FA70696E
:1017900000280CD03068E96AC06A884207D208493C
:1017A0004FF080500860BFF34F8FBFF36F8FBDE8DD
:1017B000F081000064000020C800002048030020E1
:1017C00004ED00E070B5124E124D1CE000F070FC0C
:1017D000306820B1002400F001FEA4B901E001242A
:1017E000F9E700F0FFF9F068C468201D00F0B6F9D1
:1017F000A868401EA8606868401E686000F02CFA67
:10180000204600F009F868680028DFD170BD0000AC
:10181000840300206400002010B50446006B00F033
:101820004BFA2046BDE8104000F046BA10484FF48D
:101830001041420706D0C01D0D4920F00700411A93
:10184000C1F510410B4A00230144C2E900030839E5
:10185000103A21F0070111604B600B600B1AC0E9D0
:10186000001393604FF000405360D0607047000059
:10187000AC030020B0000020074E4FF08054074D0D
:10188000FFF7A0FF30680128FAD92C60BFF34F8F13
:10189000BFF36F8FF4E70000C800002004ED00E004
:1018A0002DE9F047DDE909840E4682466FF0030119
:1018B000206B01EB82010844089D20F00707994640
:1018C000780705D040F22B3218A11EA0FFF768FD63
:1018D00000202218315C82F83410315C11B1401CB8
:1018E0001028F6D3002684F84360202D00D31F254E
:1018F000201DE56200F04FF904F1180000F04BF9EB
:101900002461C5F120006462A061666484F84860C7
:101910004A465146384600F00BF92060B8F1000FF6
:1019200001D0C8F80040BDE8F08700002E2E5C46CC
:1019300072656552544F535C7372635C7461736B70
:10194000732E63004572726F723A25732C25640DF5
:101950000A00000030B5114900E011460A688242D1
:10196000FBD34B685C18844203D14068184448603C
:10197000084643681C18944209D1084C103C24685E
:10198000A24209D052681A4442600A681268026092
:10199000814200D0086030BD0460F9E7B00000204B
:1019A0000648416B096829B1416BC968C968496833
:1019B000816270474FF0FF31FAE7000064000020B9
:1019C00008484068401C05D040F20F1206A110A044
:1019D000FFF7E6FC502080F31188BFF34F8FBFF371
:1019E0006F8FFEE7B80000202E2E5C4672656552B0
:1019F000544F535C706F72745C525644535C415246
:101A00004D5F434D34465C706F72742E630000006E
:101A10004572726F723A25732C25640D0A0000001E
:101A20002DE9F0410546002600F042FB324F3868B0
:101A300008B9FFF7FBFEF86805424FD1002D4DD0E5
:101A4000083568070BD005F00700C0F10800054411
:101A5000680704D0BF2229A131A0FFF7A1FC002D07
:101A60003CD07868854239D823491031084604684B
:101A700001E0214604466068A84202D2206800289E
:101A8000F7D13868B846844228D00E6820680860CC
:101A900060680836401B10280ED96719780704D0F3
:101AA000EC2216A11EA0FFF77BFC6068401B78604B
:101AB00038466560FFF74EFF6168D8F8040042467B
:101AC000401AC8F80400D8F80830984200D2906054
:101AD000D8F80C0001430020C4E9000100F07EFCAE
:101AE000700705D04FF4967204A10DA0FFF758FCC3
:101AF0003046BDE8F0810000A00000202E2E5C469C
:101B000072656552544F535C706F72745C4D656DB5
:101B10004D616E675C686561705F342E6300000024
:101B20004572726F723A25732C25640D0A0000000D
:101B300010B5031F4FF080741C601B1F21F00101C2
:101B40001960191F044B0B6014390A60091F6FF0EC
:101B5000020244380A6010BDC1190008D0E9013200
:101B600001699A60D0E901235A604A68824201D132
:101B700082684A60002202610868401E086070475F
:101B800000F108014FF0FF32C0E90112C1600161AC
:101B900000210160704700210161704730B50C6879
:101BA000621C02D000F1080202E0026904E01A4659
:101BB00053681D68A542FAD953684B6099608A60E2
:101BC000516008610168491C016030BD42684A608B
:101BD00093688B6093685960916008610168491C43
:101BE00001607047502080F31188BFF34F8FBFF31F
:101BF0006F8F09494868401C486001280AD107488E
:101C0000006810F0FF0F05D040F2B91204A10EA039
:101C1000FFF7C6BB70470000B800002004ED00E0ED
:101C20002E2E5C4672656552544F535C706F727411
:101C30005C525644535C41524D5F434D34465C7098
:101C40006F72742E630000004572726F723A2573D2
:101C50002C25640D0A00000010B5084C606828B9F6
:101C60004FF4E07206A110A0FFF79AFB6068401ED7
:101C7000606001D180F3118810BD0000B800002021
:101C80002E2E5C4672656552544F535C706F7274B1
:101C90005C525644535C41524D5F434D34465C7038
:101CA0006F72742E630000004572726F723A257372
:101CB0002C25640D0A00000070B500282AD0164DAE
:101CC000A0F108046068E968084205D14FF4A072E9
:101CD00012A11BA0FFF764FB206828B140F241125B
:101CE0000EA117A0FFF75CFB6068E968084211D0FD
:101CF0002268002A0ED18843606000F0D9F960683C
:101D00006968084468602046FFF724FEBDE870401B
:101D100000F064BB70BD0000A00000202E2E5C46C9
:101D200072656552544F535C706F72745C4D656D93
:101D30004D616E675C686561705F342E6300000002
:101D40004572726F723A25732C25640D0A000000EB
:101D500006484FF47A710068B0FBF1F14FF0E020D3
:101D6000491E416107210161704700000000002009
:101D7000134F0425A7F102084FF00A09BE1F641C87
:101D8000FEF7DAFC8020FEF7ADFB8246FEF7AAFCE8
:101D900001280BD0A8F8005051460AA0FFF700FB1D
:101DA000B4FBF9F109FB114010B105E03D80F3E708
:101DB000306880F0080030600A2000F091F8DEE71B
:101DC0001A14024025640D0A0000000008B5194CE1
:101DD00007E0206880F004002060294616A0FFF785
:101DE000DFFAFEF7A7FD0128F3D0FEF75FFE1B4DDB
:101DF0001B4E1C4FDFF87080FEF738FFFEF708FB24
:101E00001A48FEF789FE20280AD019A0FFF7C8FA61
:101E1000206880F010002060052000F061F8EBE7FA
:101E20002888009033883A88B8F800101748FFF7E0
:101E3000B7FAF1E7141402400D0A202020206E7238
:101E40006620646F6E7420776F726B2021202020D3
:101E5000202564202020200D0A00000048000020DA
:101E6000460000204A0000204C00002054000020C2
:101E70000D0A2020202073656E64206661696C6500
:101E8000642021202020200D0A000000D02400081A
:101E90004FF44070FEF7E0FEFEF71EFDFEF768FB14
:101EA000FEF726FCFEF776FCA820FFF775FBFEF791
:101EB00067FDFEF7D1FAFFF795FEFEF7E3FFFFF7A8
:101EC000B5F80648006800F043F8FFF7C5FE41F298
:101ED0008834204600F004F8FBE700002C000020C6
:101EE00010B5040012D00E49096B29B140F2CF425F
:101EF0000CA112A0FFF754FA00F0DAF800212046F6
:101F0000FFF7C0FB00F06AFA002807D10F494FF035
:101F100080500860BFF34F8FBFF36F8F10BD00007C
:101F2000640000202E2E5C4672656552544F535C4F
:101F30007372635C7461736B732E63004572726FAE
:101F4000723A25732C25640D0A00000004ED00E0B0
:101F500070B50446FFF746FE234D04B92C68201DDA
:101F6000FFF7FCFD58B9E06A204A00EB800152F807
:101F7000211021B901218140286988432861A06A84
:101F800018B104F11800FFF7E9FD686A401C6862A7
:101F90002868844207D1211D1548FFF717FE68689D
:101FA000401C686007E0A868401EA8602046FFF754
:101FB00033FCFFF7F5FCFFF74FFE6869002812D0ED
:101FC000286884420FD1286B28B140F2654209A1EC
:101FD0000EA0FFF7E5F911494FF080500860BFF3FC
:101FE0004F8FBFF36F8F70BD64000020C8000020CA
:101FF000840300202E2E5C4672656552544F535C5C
:102000007372635C7461736B732E63004572726FDD
:10201000723A25732C25640D0A00000004ED00E0DF
:102020001CB515480024CDE900402346802213A1A9
:10203000144800F023F901280AD0401C1BD102B03B
:1020400040F28472BDE810400FA115A0FFF7A8B9B7
:10205000502080F31188BFF34F8FBFF36F8F064876
:102060004FF0FF312C38816201214161C460BDE82D
:102070001C4000F065B81CBD9000002049444C4550
:1020800000000000791800082E2E5C46726565522B
:10209000544F535C7372635C7461736B732E630093
:1020A0004572726F723A25732C25640D0A00000088
:1020B0000248016B491C0163704700006400002066
:1020C00070B5134D286B10B10120E86170BD002080
:1020D000E86128690F4EB0FA80F0C0F11F0000EBF4
:1020E000800456F8240028B940F6F6220AA110A070
:1020F000FFF756F906EB840000F1080241684968D1
:102100004160914201D149684160C868286070BD52
:1021100064000020C80000202E2E5C4672656552C7
:10212000544F535C7372635C7461736B732E630002
:102130004572726F723A25732C25640D0A000000F7
:102140001CB5304C20683049884205D140F2591204
:102150002EA138A0FFF724F920682B49491E884298
:1021600005D14FF4AD7229A132A0FFF719F9354C12
:1021700020780190FF20207020788DF800009DF8D5
:1021800000009DF8001000F0F000884205D040F2F9
:1021900073121EA127A0FFF703F99DF800002A4A39
:1021A00000F0500010700720906007E09068401E1B
:1021B00090609DF8000040008DF800009DF8000040
:1021C0000006F3D4107A000200F4E06090600198F9
:1021D00020700C482030016841F4700101600168F2
:1021E00041F070410160FFF7B3FD00205060FDF742
:1021F000F5FF1648016841F040410160FDF7DEFF40
:1022000000201CBD00ED00E071C20F412E2E5C4687
:1022100072656552544F535C706F72745C525644D1
:10222000535C41524D5F434D34465C706F72742E67
:10223000630000004572726F723A25732C25640D9D
:102240000A00000000E400E0B800002034EF00E0E5
:1022500010B5502080F31188BFF34F8FBFF36F8FFD
:1022600000F046F818B104494FF080500860002093
:1022700080F3118810BD000004ED00E02DE9FF5F40
:102280008346DDE90E87994616468A469000FFF799
:10229000C7FB05001AD04C20FFF7C2FB040012D088
:1022A00025630021CDE90241CDE900874B46324646
:1022B00051465846FFF7F4FA2046FFF71BFA012073
:1022C00004B0BDE8F09F2846FFF7F6FC4FF0FF3062
:1022D000F6E700000548416919B1006B18B100200C
:1022E0007047012070470220704700006400002002
:1022F0002DE9F0412D4F0026386B40B1B869401CE4
:10230000B861F86900B101263046BDE8F081FD688A
:102310006D1CFD6011D1786B006828B140F6D912B0
:1023200023A129A0FFF73CF8786BB96B7963B863F8
:10233000386A401C3862FFF733FBB86ADFF89880D0
:10234000854209D3786B006880B1786BC068C46837
:10235000606885420DD2B8623868C06A00EB8001BF
:1023600058F821000128CCD90126CAE74FF0FF30E8
:10237000F1E7201DFFF7F2FBA06A18B104F1180085
:10238000FFF7ECFBE06A01213A69814011433961B2
:1023900000EB800108EB8100211DFFF717FCE06ACC
:1023A0003968C96A8842CDD30126CBE76400002092
:1023B0002E2E5C4672656552544F535C7372635C9B
:1023C0007461736B732E63004572726F723A25737A
:1023D0002C25640D0A000000C80000202DE9F047FC
:1023E0002B4D00242746286B28B94FF4FD6229A104
:1023F0002EA0FEF7D5FFFFF7F5FB286B401E2863E4
:10240000286BE8BBA8682D490126C8B3A1F52A7935
:102410008846D8F80010E9B1D8F80C00C46804F177
:102420001800FFF79BFB201DFFF798FBE06A2A6965
:1024300006FA00F11143296100EB800109EB8100EC
:10244000211DFFF7C3FBE06A2968C96A8842E0D30F
:10245000EE61DEE70CB1FFF7A3FAAC693CB1FFF720
:1024600047FF00B1EE61641EF9D10020A861E86960
:1024700030B11349012738070860BFF34F8F00E0E0
:1024800001E0BFF36F8FFFF7E7FB3846BDE8F08749
:10249000640000202E2E5C4672656552544F535CDA
:1024A0007372635C7461736B732E63004572726F39
:1024B000723A25732C25640D0A0000007003002079
:1024C00004ED00E03443101001344310100100000B
:1024D0000D0A2020207069746820203D202564208A
:1024E0007573202020726F6C6C20203D20256420A5
:1024F0007573202079617720203D20256420757335
:102500002020207468726F74746C6520203D202533
:102510006420757320200D0A000000003C2500088F
:1025200000000020C8000000C013000804260008B6
:10253000C8000020E8960000D0130008007A030AC3
:102540000000000000000000010203040607080963
:102550000000000001020304010203040607080949
:1025600000000000000000000000000088130000D0
:10257000000000000000000000000000000000005B
:10258000000000000000000000000000000000004B
:10259000000000000000000000000000000000003B
:1025A000000000000000000000000000000000002B
:1025B000000000000000000000000000000000001B
:1025C000000000000000000000000000000000000B
:1025D00000000000000000000000000000000000FB
:1025E00000000000000000000000000000000000EB
:1025F0000000000000000000AAAAAAAA0000000033
:0426000000000000D6
:040000050800018965
:00000001FF
